S01C0000657874656570726F6D5F726561645F636865636B2E73726563D7
S11300000C9434000C9451000C9451000C94510045
S11300100C9451000C9451000C9451000C94510018
S11300200C9451000C9451000C9451000C94510008
S11300300C9451000C9451000C9451000C945100F8
S11300400C9451000C9451000C9451000C945100E8
S11300500C9451000C9451000C9451000C945100D8
S11300600C9451000C94510011241FBECFEFD8E022
S1130070DEBFCDBF11E0A0E0B1E0E6E4F2E002C0F3
S113008005900D92A231B107D9F721E0A2E1B1E0C8
S113009001C01D92A231B207E1F70E94FC000C944A
S11300A021010C9400009093C5008093C40088E162
S11300B08093C1008EE08093C2000895E0ECF0E0EC
S11300C0908195FFFDCF8093C6000895CF93DF9371
S11300D0EC018881882331F021960E945E00899189
S11300E08111FBCFDF91CF91089582E085B9289AE1
S11300F089E993E00197F1F700C085B1817085B972
S1130100089515B800C000C0289A00C000C0299AFC
S113011008958FEF84B982E085B9289A089528E07C
S113012032E0882314F435B901C015B8E9E9F3E0E5
S11301303197F1F700C0289AE9E9F3E03197F1F734
S113014000C0880F95B1927095B9215051F785B1CF
S1130150827085B989E993E00197F1F700C015B879
S1130160289A0895CF9381E084B998E0C0E022E012
S113017025B900C000C0289A00C000C083B18270B5
S1130180CC0FC82B8CE08A95F1F7000025B991506B
S113019079F70E9489008C2F8695CF910895CF938B
S11301A0C82F0E94750080EA0E948F008C2F0E9445
S11301B08F000E94750081EA0E948F000E94B200A5
S11301C0C82F0E9481008CE08A95F1F700008C2FE3
S11301D0CF9108950F931F93CF93C82F8B018C2F2A
S11301E00E94CF00F80181938F01CF5F8111F7CF77
S11301F0CF911F910F910895CF93DF93CDB7DEB7C1
S1130200C456D1090FB6F894DEBF0FBECDBF8FEF31
S11302108AB984B987E190E00E94530080E091E0BC
S11302200E94660087E091E00E946600BE016F5F55
S11302307F4F81E00E94EA00CE0101960E94660091
S1090240FFCFF894FFCF8C
S113024673696464202000726561645F737461720B
S105025674002E
S9030000FC
