S0220000445F7761795F6C6F636174696F6E5F776973655F656570726F6D2E7372656358
S11300000C9434000C9451000C9451000C94510045
S11300100C9451000C9451000C9451000C94510018
S11300200C9451000C9451000C9451000C94510008
S11300300C9451000C9451000C9451000C945100F8
S11300400C9451000C9451000C9451000C945100E8
S11300500C9451000C9451000C9451000C945100D8
S11300600C9451000C94510011241FBECFEFD8E022
S1130070DEBFCDBF11E0A0E0B1E0E0E1FEE002C0F0
S113008005900D92A03EB107D9F721E0A0EEB1E0B2
S113009001C01D92A83EB207E1F70E94B7010C947B
S11300A006070C940000CF93C82F8A3019F48DE012
S11300B00E945300E0ECF0E0808185FFFDCFC09307
S11300C0C60080E090E0CF9108959093C50080939E
S11300D0C40088E18093C1008EE08093C20008953B
S11300E0E0ECF0E0908195FFFDCF8093C600089589
S11300F0E0ECF0E080818823ECF78091C60008955D
S11301000F931F93CF93DF938C01D0E00E9478006C
S1130110C82F0E947000CD3071F0CA3061F0C83031
S113012021F4DD2311F0D150F1CFF801ED0FF11DD1
S1130130C083DF5FEBCFF801ED0FF11D10828D2F2F
S1130140DF91CF911F910F910895CF93DF93EC012D
S11301508881882331F021960E9470008991811151
S1130160FBCFDF91CF91089582E085B9289A89E980
S113017093E00197F1F700C085B1817085B90895C6
S113018015B800C000C0289A00C000C0299A08957C
S11301908FEF84B982E085B9289A089528E032E087
S11301A0882314F435B901C015B8E9E9F3E03197AF
S11301B0F1F700C0289AE9E9F3E03197F1F700C0BC
S11301C0880F95B1927095B9215051F785B182701D
S11301D085B989E993E00197F1F700C015B8289A29
S11301E00895CF9381E084B998E0C0E022E025B976
S11301F000C000C0289A00C000C083B18270CC0F38
S1130200C82B8CE08A95F1F7000025B9915079F755
S11302100E94C8008C2F8695CF910895CF93DF93C9
S1130220D82FC62F0E94B40080EA0E94CE008D2FE2
S11302300E94CE008C2F0E94CE000E94C0008FEF3F
S113024091E10197F1F700C000008C2FDF91CF916D
S11302500895CF93C82F0E94B40080EA0E94CE0074
S11302608C2F0E94CE000E94B40081EA0E94CE002E
S11302700E94F100C82F0E94C0008CE08A95F1F71B
S113028000008C2FCF910895EF92FF921F93CF938C
S1130290DF93182FEB017E016991812F0E940E01DB
S11302A01F5FF70180818111F6CFDF91CF911F91FC
S11302B0FF90EF9008950F931F93CF93C82F8B0156
S11302C08C2F0E942901F80181938F01CF5F811146
S11302D0F7CFCF911F910F9108950F931F93CF9351
S11302E0DF93EC018881882349F0DE011196E0E078
S11302F0F0E031969D919111FCCF02C0E0E0F0E076
S1130300141615061CF4E417F5073CF48EE091E08E
S11303100E94BF0381E090E025C0E217F30734F0A8
S11303202417350754F4E0E0F0E017C083E291E0CD
S11303300E94BF0381E090E015C08A01DE01A40F92
S1130340B51FEB01E0E0F0E08D9189933196CF0188
S1130350800F911F28173907BCF7E60FF71F10828B
S113036080E090E0DF91CF911F910F910895CF939A
S1130370DF93CDB7DEB7C65ED4410FB6F894DEBFC7
S11303800FBECDBF8FEF84B987E190E00E94650076
S113039080E091E09093E3018093E2014E018FE9C4
S11303A0881A83E3980A0F2EF0E7AF2EF1E0BF2EF0
S11303B0F02D0F2EF1EBCF2EF1E0DF2EF02D0F2ECE
S11303C0F0EB6F2EF1E07F2EF02D8E01035D1E4FBA
S11303D086E391E00E94A50083E491E00E94A500D9
S11303E0CE0101960E94800090E00E94A5008BE55A
S11303F091E00E94A500CE018D579B4E0E94800083
S113040090E00E94A50040E050E060E070E0CE0182
S11304108D579B4E0E948A02E62EF72E7F936F9390
S1130420BF92AF920E94A90380E491E00E94A500CC
S11304302E2D3F2D45E050E0BE016B597F4FCE017C
S113044001960E946D0183E791E00E94A50040E1BE
S113045050E060E070E0CE0101960E948A02F8014B
S113046062AB73AB7F936F93DF92CF920E94A90329
S113047086E891E00E94A500BE016B597F4FF80108
S113048082A90E944401CE018B599F4F0E94A5006E
S113049081E991E00E94A5008BE991E00E94A5000A
S11304A07801F4E6EF1AF108C7010E94800090E099
S11304B00E94A50040E150E060E070E0C7010E94A6
S11304C08A02F80164AB75AB7F936F937F926F924E
S11304D00E94A90385EB91E00E94A500B801F801F0
S11304E084A90E945B01C8010E94A50080E491E0F8
S11304F00E94A50084EC91E00E94A50004531F4FC4
S11305000FB6F894DEBF0FBECDBF0815190509F06C
S11305105FCF5BCFA0E0B0E0E0E9F2E00C94C1066D
S11305205C016B017A016115710519F0FB0191837E
S11305308083E114F10429F0C7010297839708F03E
S1130540E5C0E5012196F5011081812F90E00E941C
S1130550A003892B11F05E01F4CF1D3229F42196FA
S1130560F501118101E007C01B3221F4E501229657
S1130570F501118100E0E114F10409F1F0E1EF1655
S1130580F10429F43FC010E3E114F10421F128E05F
S1130590E216F10401F154F4E2E0EE16F10421F55F
S11305A0812C912CA12CB0E4BB2E3EC0FAE0EF16B6
S11305B0F10439F020E1E216F104B1F430C0103353
S11305C019F1FAE0EF2EF12CACEC8A2E982CA82C21
S11305D0ACE0BA2E29C078E0E72EF12C812C912CC6
S11305E0A12CE0E1BE2E20C060E070E080E090E845
S11305F097010F2C000C440B550B0E9493064901E4
S11306005A0112C0103359F488818F7D883509F05E
S1130610BACF19812296026080E1E82EF12C812C58
S1130620912CA12C68E0B62E40E060E070E0CB0194
S113063027010F2C000C66087708FE0150ED352EBB
S1130640310E29E0231570F42FEB210F2A3118F411
S113065039EC332E06C02FE9210F2A3118F529EA87
S1130660322E310E232D30E02E153F05DCF447FDEC
S113067016C086169706A806B90670F0A301920163
S11306800E948306630D711D811D911D61307105EA
S1130690810520E8920710F04FEF01C041E0219658
S11306A01081CBCF202F2170C114D10471F04423C9
S11306B029F02197F601D183C08307C001FF19C037
S11306C02297F601D183C08314C047FF12C02223AE
S11306D029F060E070E080E090E804C06FEF7FEF05
S11306E08FEF9FE722E230E03093E7012093E601A9
S11306F009C0222381F090958095709561957F4F74
S11307008F4F9F4F462F372F282F12C040E030E0E5
S113071020E090E00DC097FFF5CF82E290E0909347
S1130720E7018093E6016FEF7FEF8FEF9FE7EACF5A
S1130730642F732F822FCDB7DEB7E1E10C94DD0671
S113074091110C94D005803219F089508550C8F766
S11307500895A0E0B0E0EFEAF3E00C94D006AE0117
S11307604B5F5F4FFA0161917191AF018091E2019A
S11307709091E3010E94EF03E2E00C94EC060F93E6
S11307801F93CF93DF93E091E201F091E301238182
S113079021FF1BC08C01D0E0C0E0F80181918F01E2
S11307A06091E2017091E301DB011896ED91FC91F7
S11307B01997882331F00995892B79F3DFEFCFEF6F
S11307C0ECCF8AE00995892B19F08FEF9FEF02C0D7
S11307D08D2F9C2FDF91CF911F910F910895ABE046
S11307E0B0E0E5EFF3E00C94C0066C017B018A01F4
S11307F0FC0117821682838181FFCCC1CE01019650
S11308003C01F6019381F70193FD859193FF81915A
S11308107F01882309F4BAC1853239F493FD8591A7
S113082093FF81917F01853229F4B60190E00E9403
S1130830E905E7CF912C212C312CFFE1F315D8F0F9
S11308408B3279F038F4803279F08332A1F4232D9D
S113085020611DC08D3261F0803369F4232D216045
S113086016C0832D8260382EE32DE4603E2E2AC00C
S1130870F32DF8601DC037FC2DC020ED280F2A3061
S113088040F08E32B9F436FC81C1232D2064322E1F
S113089019C036FE06C08AE0989E200D1124922EBF
S11308A011C0EAE02E9E200D1124222EF32DF062B9
S11308B03F2E08C08C3621F4832D8068382E02C068
S11308C0883641F4F70193FD859193FF81917F016F
S11308D08111B3CF982F9F7D9554933028F40C5FEA
S11308E01F4F9FE399830DC0833631F0833771F036
S11308F0833509F059C021C0F801808189830E5FD6
S11309001F4F88248394912C530113C02801F2E0D3
S11309104F0E511CF801A080B18036FE03C0692D32
S113092070E002C06FEF7FEFC5010E94DE054C014D
S11309308201F32DFF773F2E16C0280122E0420EDC
S1130940511CF801A080B18036FE03C0692D70E00F
S113095002C06FEF7FEFC5010E94D3054C01F32D58
S1130960F0683F2E820133FC1BC0822D90E0881674
S11309709906B0F4B60180E290E00E94E9052A9459
S1130980F4CFF50137FC859137FE81915F01B60103
S113099090E00E94E90521102A9421E0821A91082E
S11309A08114910471F7E8C0843611F0893641F559
S11309B0F80137FE07C060817181828193810C5FE9
S11309C01F4F08C060817181072E000C880B990BA2
S11309D00E5F1F4FF32DFF763F2E97FF09C09095B2
S11309E08095709561957F4F8F4F9F4FF0683F2E94
S11309F02AE030E0A3010E942506882E861845C00F
S1130A00853731F4232D2F7EB22E2AE030E025C025
S1130A10932D997FB92E8F36C1F018F4883579F06B
S1130A20B5C0803719F0883721F0B0C0E92FE061F4
S1130A30BE2EB4FE0DC0FB2DF460BF2E09C034FEE3
S1130A400AC0292F2660B22E06C028E030E005C077
S1130A5020E130E002C020E132E0F801B7FE07C037
S1130A6060817181828193810C5F1F4F06C0608118
S1130A70718180E090E00E5F1F4FA3010E94250664
S1130A80882E8618FB2DFF773F2E36FE0DC0232DB2
S1130A902E7FA22E891458F434FE0BC032FC09C0F8
S1130AA0832D8E7EA82E05C0B82CA32C03C0B82C91
S1130AB001C0B92CA4FE0FC0FE01E80DF11D808118
S1130AC0803321F49A2D997EA92E09C0A2FE06C076
S1130AD0B394B39404C08A2D867809F0B394A3FC2C
S1130AE011C0A0FE06C0B21488F4280C922C9B18E6
S1130AF00EC0B21460F4B60180E290E00E94E905F1
S1130B00B394F7CFB21418F42B1802C0982C212CEC
S1130B10A4FE10C0B60180E390E00E94E905A2FEA5
S1130B2017C0A1FC03C088E790E002C088E590E00C
S1130B30B6010CC08A2D867859F0A1FE02C08BE262
S1130B4001C080E2A7FC8DE2B60190E00E94E905B5
S1130B50891438F4B60180E390E00E94E9059A9480
S1130B60F7CF8A94F301E80DF11D8081B60190E07E
S1130B700E94E9058110F5CF222009F442CEB60186
S1130B8080E290E00E94E9052A94F6CFF60186817E
S1130B90978102C08FEF9FEF2B96E2E10C94DC0665
S1130BA0992788270895FC01059061507040011031
S1130BB0D8F7809590958E0F9F1F0895FC01615082
S1130BC0704001900110D8F7809590958E0F9F1F6B
S1130BD008950F931F93CF93DF93FB01238121FD8E
S1130BE003C08FEF9FEF2CC022FF16C046815781B0
S1130BF0248135814217530744F4A081B1819D01BA
S1130C002F5F3F4F318320838C93268137812F5F61
S1130C103F4F3783268314C08B01EC01FB01008412
S1130C20F185E02D0995892BE1F6D80116968D9171
S1130C309C911797019617969C938E931697CE01C5
S1130C40DF91CF911F910F910895FA01AA272830BF
S1130C5051F1203181F1E8946F936E7F6E5F7F4F85
S1130C608F4F9F4FAF4FB1E03ED0B4E03CD0670F01
S1130C70781F891F9A1FA11D680F791F8A1F911D54
S1130C80A11D6A0F711D811D911DA11D20D009F4A4
S1130C9068943F912AE0269F11243019305D3193E6
S1130CA0DEF6CF010895462F4770405D4193B3E0CF
S1130CB00FD0C9F7F6CF462F4F70405D4A3318F076
S1130CC0495D31FD4052419302D0A9F7EACFB4E027
S1130CD0A6959795879577956795BA95C9F70097DF
S1130CE06105710508959B01AC010A2E0694579580
S1130CF0479537952795BA95C9F7620F731F841FD7
S1130D00951FA01D0895DB018F939F930E94B50644
S1130D10BF91AF91A29F800D911DA39F900DB29F93
S1130D20900D11240895A1E21A2EAA1BBB1BFD01EC
S1130D300DC0AA1FBB1FEE1FFF1FA217B307E407B6
S1130D40F50720F0A21BB30BE40BF50B661F771F0E
S1130D50881F991F1A9469F76095709580959095EE
S1130D609B01AC01BD01CF0108950E94F706A59F28
S1130D70900DB49F900DA49F800D911D1124089592
S1130D802F923F924F925F926F927F928F929F9297
S1130D90AF92BF92CF92DF92EF92FF920F931F9385
S1130DA0CF93DF93CDB7DEB7CA1BDB0B0FB6F89436
S1130DB0DEBF0FBECDBF09942A88398848885F8476
S1130DC06E847D848C849B84AA84B984C884DF80E7
S1130DD0EE80FD800C811B81AA81B981CE0FD11DCB
S1130DE00FB6F894DEBF0FBECDBFED010895A29FEC
S1130DF0B001B39FC001A39F700D811D1124911DEB
S1130E00B29F700D811D1124911D0895F894FFCF98
S1130E100000000200000000530000000000496EC2
S1130E2076616C6964202766726F6D2720696E6431
S1130E30657800496E76616C69642027746F272099
S1130E40696E646578000A0D2077726974652E2EC8
S1130E500A0D00575F6D656D6F727920616464726D
S1130E606573732B646174610A0D000A0D656E74F9
S1130E706572206C61737420696E6465780A0D0074
S1130E802564000A0D2077726974652061646472B8
S1130E906573730A0D0077727420646174610A0DBE
S1130EA0000A0D20726561642E2E000A0D525F6DDA
S1130EB0656D6F72795F616464726573730A0D00A6
S1130EC00A25640A000A0D20726561645F64617416
S1130ED0610A0D000A0D646F20752077616E74201D
S1130EE0777269746520616761696E2E2E2E000029
S9030000FC
